:020000040800F2
:10000000202F0020290200083102000833020008D6
:10001000350200083702000839020008000000001D
:100020000000000000000000000000009101000836
:100030003D02000800000000D5010008AD060008E0
:10004000430200084302000843020008430200087C
:10005000430200084302000843020008430200086C
:10006000430200084302000843020008430200085C
:10007000430200084302000843020008430200084C
:10008000430200084302000843020008430200083C
:10009000430200084302000843020008430200082C
:1000A000430200084302000843020008430200081C
:1000B00089070008430200084302000843020008C1
:1000C00043020008430200084302000843020008FC
:1000D00043020008430200084302000843020008EC
:1000E00043020008430200084302000800F002F83F
:1000F00000F03AF80AA090E8000C82448344AAF188
:100100000107DA4501D100F02FF8AFF2090EBAE885
:100110000F0013F0010F18BFFB1A43F0010318473B
:100120003C1700005C170000103A24BF78C878C163
:10013000FAD8520724BF30C830C144BF04680C60ED
:10014000704700000023002400250026103A28BF35
:1001500078C1FBD8520728BF30C148BF0B60704739
:100160001FB51FBD10B510BD00F0F8F8114603B45F
:1001700000F0FCFB03BCFFF7F3FF00F0F9FB00F01D
:1001800012F903B4FFF7EEFF03BC00F019F9000009
:10019000224B19680868B0E8F00F80F30988BFF3B4
:1001A0006F8F4FF0000080F311884EF00D0E7047F6
:1001B0000000000006480068006880F3088862B606
:1001C00061B6BFF34F8FBFF36F8F00DF00BF00BF7B
:1001D00008ED00E0EFF30980BFF36F8F0F4B1A6853
:1001E00020E9F00F106008B54FF0100080F311887F
:1001F000BFF34F8FBFF36F8F00F000FF4FF0000091
:1002000080F31188BDE8084019680868B0E8F00F6D
:1002100080F30988BFF36F8F704700BF280000206C
:10022000EFF3058070470000094880470948004700
:10023000FEE7FEE7FEE7FEE7FEE7FEE7FEE7FEE796
:10024000FEE7FEE704480549054A064B70470000F3
:10025000C5060008ED00000820290020202F0020FE
:10026000202B0020202B0020032A40F2308010F0A9
:10027000030C00F0158011F8013BBCF1020F624441
:1002800098BF11F801CB00F8013B38BF11F8013BD2
:10029000A2F1040298BF00F801CB38BF00F8013B7F
:1002A00011F0030300F02880083AC0F0088051F8EC
:1002B000043B083A51F804CBA0E80810F5E7121DFA
:1002C0005CBF51F8043B40F8043BAFF30080D20719
:1002D00024BF11F8013B11F801CB48BF11F8012BE5
:1002E00024BF00F8013B00F801CB48BF00F8012B08
:1002F000704770477047704710B5203AC0F00B80C8
:10030000B1E81850203AA0E81850B1E81850A0E819
:100310001850BFF4F5AF5FEA027C24BFB1E8185073
:10032000A0E8185044BF18C918C0BDE810405FEAE3
:10033000827C24BF51F8043B40F8043B08BF70475F
:10034000D20728BF31F8023B48BF11F8012B28BF64
:1003500020F8023B48BF00F8012B7047754600F0BB
:100360002BF8AE4605006946534620F00700854647
:1003700018B020B5FFF766FFBDE820404FF000063B
:100380004FF000074FF000084FF0000B21F007017D
:10039000AC46ACE8C009ACE8C009ACE8C009ACE8C0
:1003A000C0098D46704710B50446AFF30080204663
:1003B000BDE81040FFF7E5BE00487047BC280020AC
:1003C00001491820ABBEFEE726000200704700007E
:1003D00008B50121042000F0E5F80120ADF8000087
:1003E00010208DF8030002208DF8020069460248B3
:1003F00000F004F808BD0000000801402DE9F041BC
:10040000024600250026002000230024002791F842
:1004100003C00CF00F0591F803C00CF0100CBCF1F8
:10042000000F03D091F802C04CEA050591F800C016
:10043000BCF1000F31D0146800202BE04FF0010C0C
:100440000CFA00F3B1F800C00CEA03069E4220D17A
:1004500083004FF00F0C0CFA03F7BC4305FA03FCC2
:100460004CEA040491F803C0BCF1280F06D14FF008
:10047000010C0CFA00FCC2F814C00AE091F803C0A9
:10048000BCF1480F05D14FF0010C0CFA00FCC2F88A
:1004900010C0401C0828D1D31460B1F800C0BCF1D2
:1004A000FF0F34DD546800202EE000F1080C4FF0FF
:1004B000010808FA0CF3B1F800C00CEA03069E42EA
:1004C00021D183004FF00F0C0CFA03F7BC4305FA5F
:1004D00003FC4CEA040491F803C0BCF1280F05D1D9
:1004E00000F1080C08FA0CF8C2F8148091F803C067
:1004F000BCF1480F07D100F1080C4FF0010808FAD1
:100500000CF8C2F81080401C0828CED35460BDE817
:10051000F081000070B5002100230F22C47804B3DD
:10052000154C246804F4E064C4F5E064210AC1F1C8
:100530000403CA40447804FA03F184781440214348
:1005400009010E4C0678A155047804F01F0501241A
:10055000AC4005786D11AD0005F1E025C5F800410E
:1005600009E0047804F01F050124AC40044D06782E
:10057000761145F8264070BD0CED00E000E400E087
:1005800080E100E029B1064AD2690243044BDA61F6
:1005900004E0034AD2698243014BDA6170470000EC
:1005A0000010024029B1064A92690243044B9A6145
:1005B00004E0034A92698243014B9A61704700004C
:1005C0000010024010B500F001F810BD0CB500207D
:1005D000019000903348006840F480303149086051
:1005E00000BF3048006800F4003000900198401CC3
:1005F0000190009818B90198B0F5A06FF1D1294881
:10060000006800F4003010B10120009001E00020EB
:1006100000900098012843D12348006840F0100062
:10062000214908600846006820F007000860084675
:10063000006840F0020008601A48406819494860A4
:100640000846406848600846406840F4806048605A
:100650000846406820F47C1048600846406840F432
:10066000E81048600846006840F08070086000BFED
:100670000C48006800F000700028F9D00948406874
:1006800020F00300074948600846406840F0020037
:10069000486000BF0348406800F00C000828F9D10A
:1006A0000CBD0000001002400020024010B54FF0C9
:1006B000E020006900F000FF012801D000F0F6FC06
:1006C00010BD000010B51348006840F0010011494A
:1006D000086008464068104908400E4948600846CE
:1006E00000680E4908400B4908600846006820F47D
:1006F000802008600846406820F4FE0048604FF4FF
:100700001F008860FFF75EFF4FF00060044908603B
:1007100010BD0000001002400000FFF8FFFFF6FED1
:1007200008ED00E01FB501210846FFF72BFF41F659
:100730001F40ADF804000020ADF8060041F28730FC
:10074000ADF808000020ADF80A008DF80C0001A9F2
:100750004FF0804000F056F801221146900700F05B
:1007600047F80121880700F026F81C208DF80000CA
:1007700000208DF801008DF8020001208DF80300A3
:100780006846FFF7C7FE1FBD10B50121880700F0BE
:100790001EF848B10121880700F00AF803480068F4
:1007A00080F001000149086010BD00000C08014004
:1007B000CA430282704721B1028842F001020280DE
:1007C00004E002884FF6FE731A400280704730B58D
:1007D0000246002000230024158A05EA01039589BA
:1007E00005EA010413B10CB1012000E0002030BD86
:1007F0001AB183890B43838102E083898B43838110
:1008000070470000002202881D4B98420ED01D4BFD
:1008100098420BD0B0F1804F08D01B4B984205D0C6
:100820001A4B984202D01A4B984204D14FF68F735C
:100830001A404B881A43174B984207D0164B9842E0
:1008400004D04FF6FF431A40CB881A4302808B88AE
:1008500083850B8803850A4B98420BD0094B98423D
:1008600008D00E4B984205D00D4B984202D00D4B4C
:10087000984201D10B7A03860123838270470000DE
:10088000002C0140003401400004004000080040FA
:10089000000C0040001000400014004000400140E7
:1008A000004401400048014010B5044600F070F8D3
:1008B00020B14FF0FF31206800F038FD10BD00007E
:1008C00070B50546286800F01FFB00240BE00849BE
:1008D00051F824102868884204D10020044941F8C6
:1008E000240002E0641C052CF1D300BF70BD0000A1
:1008F000E403002070B5054600202860002415E0C0
:10090000124850F8240080B904EB8400104A02EB2E
:100910000011012000F0F5FB0C4941F824000846C5
:1009200050F824002860012070BD641C052CE7D31A
:1009300000F02EF818B1012000F0D2FB28602868E2
:1009400008B90020F0E70120EEE70000E4030020F2
:100950005402002010B5044600F01AF828B1002314
:100960001A461946206800F055FC10BD704700007B
:10097000FFF72EFDFFF7D6FE002400E0641C0348BD
:100980008442FBDB00E030BFFDE70000404B4C0041
:1009900010B50748007848B900F08EFD012803D053
:1009A00001200349087010BD0020FCE70120FAE790
:1009B000000000202DE9F04105460E461648076864
:1009C00016480068001D00F009FA681C38B936B1F5
:1009D00012480168091D124800F03CFA1AE07C191F
:1009E0000E4800684460BC4207D20C480168091DEB
:1009F0000C48006800F014FA0CE008480168091D72
:100A00000948006800F00CFA08480068844201D2E6
:100A100006480460BDE8F0813C000020280000206A
:100A2000A8280020300000202C00002058000020C2
:100A30002DE9F04104460F4615464FF00008A66B1D
:100A4000206C48B9206800282CD1A06800F0D0FDA7
:100A500080460020A06025E07DB93946226C6068A0
:100A6000FFF702FC216C606808446060D4E9010172
:100A7000884217D32068606014E03946226CE06831
:100A8000FFF7F2FB216CE068411AE1602168E06841
:100A9000884203D2216CA068411AE160022D01D185
:100AA00006B1761E701CA0634046BDE8F081014689
:100AB0004A6A22B10A6B1268C2F1380000E00020D5
:100AC0007047000030B54FF40053174800F007049A
:100AD0002CB1C01D20F00700134C041B1B1B024649
:100AE000124C22600024114D6C60D018083820F0A0
:100AF00007000F4C206000240D4D2D686C600C4DDC
:100B00002D682C601146441A4C60094C24680C6016
:100B1000084D4C682C60084D4C682C604FF0004428
:100B2000064D2C6030BD0000F803002004000020BA
:100B30000C000020140000201000002020000020E5
:100B400010B5044654B10020A06020600021E1608F
:100B500000231A461946204600F05CFB10BD2DE923
:100B6000F04106460D4617469846069C0DB924608E
:100B700000E02760E66325640121204600F00AFBBF
:100B800084F84C80BDE8F08110B50146164800E0BD
:100B9000006803688B42FBD30246436813448B42D0
:100BA00004D143684C682344436001460A464B68BD
:100BB00013440468A34211D10C4C03682468A34277
:100BC00008D04B680468646823444B6003681B6862
:100BD0000B6005E0054B1B680B6001E003680B60D0
:100BE000884200D0016010BD040000200C000020ED
:100BF00070B5054600F03AF9A86B08B9012400E089
:100C0000002400F045F9204670BD70B5054600F09F
:100C10002DF9A86BE96B884201D1012400E0002482
:100C200000F036F9204670BD0A490968096809B91B
:100C3000012100E0002121B14FF0FF31064A11608F
:100C400006E004490968C968C868034A4168116038
:100C5000704700002C0000205800002070B50446AA
:100C600000F004F994F9455010E0606A08B90120D9
:100C700000E0002038B904F1240000F03BFD18B179
:100C800000F058F900E003E0681E45B2002DECDCEE
:100C900000BFFF2084F8450000F0FAF800F0E6F805
:100CA00094F9445010E0206908B9012000E00020C8
:100CB00048B904F1100000F01DFD08B100F03AF948
:100CC000681E45B200E001E0002DECDC00BFFF2013
:100CD00084F8440000F0DCF870BD00002DE9F0411C
:100CE00005464FF0000800F081F92E48006808B969
:100CF000FFF7E8FE2C480068284000284CD145B199
:100D0000083505F0070020B105F00700C0F1080024
:100D10000544002D40D02548006885423CD8244E2B
:100D20003046046801E0264624686068A84202D282
:100D300020680028F7D11B48006884422CD0306816
:100D400000F10808206830606068401B102807D94F
:100D500067196068401B786065603846FFF714FFCC
:100D6000124960680968081A104908600846006856
:100D700010490968884203D20C4800680D49086090
:100D800009496068096808436060002020600A48DB
:100D90000068401C0849086000F0ECFC4046BDE8D3
:100DA000F08100000C000020200000201000002036
:100DB00004000020140000201800002006480068ED
:100DC00030B10549096801F15000096D491C016005
:100DD00001480068704700002800002001460A69A9
:100DE000D1E901309860D1E9010358605068884228
:100DF00001D188685060002008611068401E1060B2
:100E000010687047704700F1080141604FF0FF31F2
:100E1000816000F10801C16001610021016070473B
:100E200010B502460B685C1C0CB9106907E002F1B2
:100E3000080000E04068446824689C42FAD944688D
:100E40004C604C68A160886041600A611468641C51
:100E5000146010BD42684A6093688B609368596063
:100E60009160086103685B1C0360704700BF10203D
:100E700080F31188BFF34F8FBFF36F8F00BF03481C
:100E80000068401C014908607047000024000020F1
:100E900006480068401E054908600846006820B9F9
:100EA000002080F3118800BF00BF7047240000209D
:100EB00070B506463546FEB1083D2C460F496068C0
:100EC00009680840C0B12068B0B90C496068096879
:100ED0008843606000F08AF809496068096808443E
:100EE000074908602046FFF74FFE06480068401C8F
:100EF0000449086000F03EFC70BD000020000020A6
:100F0000100000201C00002070B50446254695F80E
:100F1000460010B92846FFF7CBFF70BD03490968AA
:100F200001600349096841607047000050000020DB
:100F30003C00002001200149086070474C0000205F
:100F400070B505460C460548016818312846FFF77C
:100F500067FF01212046FFF72DFD70BD280000200E
:100F60002DE9F04706460F4634464FF00109002EA2
:100F700035D0E06CB84201D23D4600E0E56CE06A55
:100F8000A8422CD0206D012829D1D4F82C80E5620C
:100F9000A06900F0004010B9C5F13800A06108EB6D
:100FA0008801104A02EB81016069884201D1012069
:100FB00000E0002098B1201DFFF710FF0A49E06A09
:100FC0000968884202D90849E06A0860E16A01EBD1
:100FD0008101044A02EB8100211DFFF73BFFBDE8C0
:100FE000F0870000F823002040000020024800683D
:100FF000401C0149086070476000002070B5264819
:10100000006818B101202549086043E00020234909
:10101000086023480068046B4FF0A5352068B0F1E4
:10102000A53F0BD16068B0F1A53F07D1A068B0F132
:10103000A53F03D1E068B0F1A53F05D0184801688D
:1010400034310068FFF7DEFE1648016800E0491EF3
:1010500001EB8100144A52F8200008B9012000E099
:1010600000200028F3D101EB81020F4B03EB82003B
:1010700042685268426000F108024368934202D11C
:101080004268526842604268D268054B1A6005485F
:10109000016000BF70BD0000600000204C00002017
:1010A0002800002040000020F823002010B500BFD9
:1010B000102080F31188BFF34F8FBFF36F8F00BFF5
:1010C00000F00AFA18B14FF080500449086000BFE0
:1010D000002080F3118800BF10BD000004ED00E087
:1010E0002DE9F04104460126002722460021012077
:1010F00000F01CF805462846FFF722FD2846BDE80B
:10110000F0812DE9F84304460D4601274FF0000811
:101110002B46002211460120009400F024F80646D8
:101120003046FFF70DFD3046BDE8F8832DE9F84362
:1011300005460E46174605FB06F909F15000FFF774
:10114000CDFD044664B1A04608F15008002084F8A3
:1011500046003B464246314628460094FFF7FFFCD6
:101160002046BDE8F8832DE9F84306460F46904631
:101170001D46DDF820902C464CB1012084F8460035
:101180004B464246394630460094FFF7E8FC20467D
:10119000BDE8F88370B505460E462C46FFF766FE9F
:1011A000D4E90F12206801FB0200A0600020A063B8
:1011B00020686060E06B401E226C216800FB021119
:1011C000E160FF2084F8440084F845009EB920695E
:1011D00008B9012000E00020A8B904F1100000F0D7
:1011E00089FA80B14FF0805009490860BFF34F8FF2
:1011F000BFF36F8F07E004F11000FFF704FE04F166
:101200002400FFF700FEFFF743FE012070BD000041
:1012100004ED00E02DE9FF4383B0074688461D46F4
:101220004FF000093C4600BFFFF720FEA06BE16BCA
:10123000884201D3022D28D12A4641462046FFF795
:10124000F7FB0646606A08B9012000E0002068B993
:1012500004F1240000F04EFA88B14FF0805032497A
:101260000860BFF34F8FBFF36F8F08E03EB14FF0C0
:1012700080502D490860BFF34F8FBFF36F8FFFF78A
:1012800007FE012007B0BDE8F083059818B9FFF705
:10129000FFFD0020F6E7B9F1000F04D101A8FFF728
:1012A0003DFE4FF00109FFF7F3FDFFF79FFEFFF74B
:1012B000DDFD94F94400401C10B9002084F844007E
:1012C00094F94500401C10B9002084F84500FFF750
:1012D000DFFD05A901A800F0C1F8F0B92046FFF72D
:1012E00094FCA0B104F110000599FFF729FE2046F7
:1012F000FFF7B4FC00F03EFA002895D14FF0805083
:1013000009490860BFF34F8FBFF36F8F8CE720460A
:10131000FFF7A4FC00F02EFA86E72046FFF79EFCBC
:1013200000F028FA0020ADE704ED00E02DE9F341DC
:1013300082B0054600272C46B84600BFFFF796FD51
:10134000A66BFEB1701EA063206810B9FFF736FDD2
:10135000A060206908B9012000E0002060B904F114
:10136000100000F0C7F938B14FF080503A490860DA
:10137000BFF34F8FBFF36F8FFFF78AFD012004B0DB
:10138000BDE8F081039818B9FFF782FD0020F6E769
:101390001FB96846FFF7C2FD0127FFF779FDFFF788
:1013A00025FEFFF763FD94F94400401C10B90020AE
:1013B00084F8440094F94500401C10B9002084F8DA
:1013C0004500FFF765FD03A9684600F047F840BBFC
:1013D0002046FFF70DFCF0B1206838B9FFF746FD55
:1013E000A06800F035F98046FFF752FD04F12400B3
:1013F0000399FFF7A5FD2046FFF730FC00F0BAF98E
:1014000000289BD14FF0805013490860BFF34F8FE5
:10141000BFF36F8F92E72046FFF720FC00F0AAF998
:101420008CE72046FFF71AFC00F0A4F92046FFF7EE
:10143000DFFB002882D0B8F1000F0BD0FFF716FDBC
:101440002046FFF734FB06463146A068FFF788FDCB
:10145000FFF71EFD002092E704ED00E070B50646A0
:101460000C46FFF703FD124802687068131A2068E3
:10147000401C08B9002517E00E4930680968884209
:1014800004D07068904201D801250DE02068984290
:1014900007D92068C01A20603046FFF73FFD0025BD
:1014A00002E0002020600125FFF7F2FC284670BD15
:1014B0003C000020500000200549096809B90120BE
:1014C00005E00449096809B9022000E000207047DE
:1014D00044000020600000202DE9F0410027394839
:1014E0000068002866D138480068451C3648056009
:1014F0008DB93648D0F80080354800683349086017
:101500003348C0F8008033480068401C3149086007
:10151000FFF78AFB00BF3048006885423AD300BF1E
:101520002A480068006808B9012000E0002020B1C6
:101530004FF0FF30284908602BE024480068C0685D
:10154000C4686668B54202D22348066021E0201DC7
:10155000FFF744FCA06A18B104F11800FFF73EFC45
:101560001E49E06A0968884202D91C49E06A08609D
:10157000E16A01EB81011A4A02EB8100211DFFF7AC
:1015800069FC1849E06A0968C96A8842C8D301271A
:10159000C6E700BF13480068C06A00EB800010492E
:1015A00051F82000012800D901270F48006800B138
:1015B000012704E00D480068401C0C4908603846CB
:1015C000BDE8F081600000203C0000202C000020DD
:1015D0003000002050000020580000204000002073
:1015E000F8230020280000204C00002048000020A4
:1015F00070B505462C4600261DB3206D401E2065A3
:10160000E16CE06A88421CD0206DD0B9201DFFF744
:10161000E5FBE06CE062E06AC0F13800A0610A49D5
:10162000E06A0968884202D90749E06A0860E16A0D
:1016300001EB8101054A02EB8100211DFFF70AFC45
:101640000126304670BD000040000020F823002035
:1016500070B505462C460026002D42D02249E06A8E
:101660000968C96A884235D2A06900F0004028B9EB
:101670001D480068C06AC0F13800A061E16A01EB52
:1016800081011A4A02EB81016069884201D101207F
:1016900000E00020C0B1201DFFF7A0FB1248006849
:1016A000C06AE0621249E06A0968884202D91049BA
:1016B000E06A0860E16A01EB81010C4A02EB8100FB
:1016C000211DFFF7C7FB03E007480068C06AE0621E
:1016D000012606E00449E06C0968C96A884200D224
:1016E0000126304670BD000028000020F8230020AD
:1016F0004000002070B50646F068C46804F1180088
:10170000FFF76CFB15480068A0B9201DFFF766FBCA
:101710001349E06A0968884202D91149E06A086001
:10172000E16A01EB81010F4A02EB8100211DFFF705
:1017300091FB04E004F118010B48FFF78BFB0B4908
:10174000E06A0968C96A884204D90125012008496C
:10175000086000E00025284670BD00006000002001
:1017600040000020F82300208028002028000020CE
:101770004C00002070B500240026FFF777FB2E48B0
:101780000068401E2C4908600846006800284ED1B9
:101790002A48006800284AD023E02948C068C46865
:1017A00004F11800FFF71AFB201DFFF717FB25496E
:1017B000E06A0968884202D92249E06A0860E16A61
:1017C00001EB8101204A02EB8100211DFFF742FB62
:1017D0001E49E06A0968C96A884202D301201C498F
:1017E00008601748006808B9012000E000200028C0
:1017F000D3D00CB1FFF718FA1648056865B100BFE1
:10180000FFF76AFE10B10120114908606D1E002D1E
:10181000F6D100200F4908600D48006838B1012654
:1018200030070D490860BFF34F8FBFF36F8FFFF78D
:101830002FFB304670BD0000600000203800002003
:101840008028002040000020F823002028000020ED
:101850004C0000204800002004ED00E07C18000847
:10186000000000206400000028010008E0180008C3
:1018700064000020BC2E00004401000800000000AD
:101880000000000000000000000000000000000058
:101890000000000000000000000000000000000048
:1018A000AAAAAAAA00000000000000000000000090
:1018B0000000000000000000000000000000000028
:1018C0000000000000000000000000000000000018
:1018D0000000000000000000000000000000000008
:0400000508000229C4
:00000001FF
